:020000040000FA
:10000000B2016D28A7000911091009108316091102
:1000100009100910880183122708B2182A283A30DB
:10002000A100FC3054203330A6003D201030A10048
:10003000683054203D20643053203D203830292042
:100040000C3029200130292006302920B21427083D
:100050002A283214A600321C38280910033C031C3D
:100060003D283D200730A100D03054200314080063
:100070003214FE3C03196828091409152608880063
:10008000321009113230532003140800A301A200DA
:10009000FF30A207031CA307031C68280330A1003C
:1000A000DF3054204828A101E83EA000A109FC301F
:1000B000031C5D28A00703185A28A0076400A10F9D
:1000C0005A2820186328A01C672800006728080009
:1000D00083130313831264000800831607309F0004
:1000E000643083128A01462083160730850007306A
:1000F0009F008601831285018601880164008A11B0
:100100000A120518B22806148610FE308A01022051
:1001100001308A0102204D308A0102206F308A01AD
:10012000022074308A0102206F308A01022072306E
:100130008A010220FE308A010220C0308A0102209A
:1001400049308A0102204C308A01022045308A0160
:10015000022052308A01022049308A0102201430E4
:100160008A01462064008A110A128518E5280610C3
:100170008614FE308A01022001308A0102204D30AF
:100180008A0102206F308A01022074308A01022025
:100190006F308A01022072308A010220FE308A010B
:1001A0000220C0308A01022047308A0102204530F7
:1001B0008A01022052308A01022049308A0102203D
:1001C00014308A0146208A01B22864008A110A127A
:1001D0000519F72806108610FE308A01022001302A
:1001E0008A01022014308A0146208A01E5288A010A
:0201F0007E2867
:02400E00753FFC
:00000001FF
