:020000040000FA
:100000002828A301A200FF30A207031CA307031C9A
:1000100023280330A100DF300F200328A101E83E90
:10002000A000A109FC30031C1828A00703181528FC
:10003000A0076400A10F152820181E28A01C222844
:1000400000002228080083130313831264000800B1
:1000500083168030860083128601B8016400861FF3
:100060003F28B80A64003808103C031D3828B8013E
:10007000380886000130A300F43002204128B8017E
:0400800086012E289F
:02400E00653F0C
:00000001FF
