:020000040000FA
:10000000B2016D28A7000911091009108316091102
:1000100009100910880183122708B2182A283A30DB
:10002000A100FC3054203330A6003D201030A10048
:10003000683054203D20643053203D203830292042
:100040000C3029200130292006302920B21427083D
:100050002A283214A600321C38280910033C031C3D
:100060003D283D200730A100D03054200314080063
:100070003214FE3C03196828091409152608880063
:10008000321009113230532003140800A301A200DA
:10009000FF30A207031CA307031C68280330A1003C
:1000A000DF3054204828A101E83EA000A109FC301F
:1000B000031C5D28A00703185A28A0076400A10F9D
:1000C0005A2820186328A01C672800006728080009
:1000D00083130313831264000800831607309F0004
:1000E000643083128A014620FE308A0102200130EA
:1000F0008A01022041308A0102204D308A0102200B
:1001000045308A01022052308A010220FF308A01E4
:10011000022002308A01022041308A0102204D3043
:100120008A01022045308A01022052308A010220D1
:0601300073308A01022079
:02400E00753FFC
:00000001FF
