:020000040000FA
:10000000B201A828A501A400B3172730A30010301F
:1000100015200330A300E8301520A301643015201B
:10002000A3010A30152024082028A2002508A100D9
:100030002408A00087202008031DB313B31B080069
:10004000303EA70009110910091083160911091083
:100050000910880183122708B21849283A30A100F4
:10006000FC3073203330A6005C201030A1006830D3
:1000700073205C20643072205C20383048200C30C3
:1000800048200130482006304820B214270849286B
:100090003214A600321C57280910033C031C5C28AC
:1000A0005C200730A100D030732003140800321404
:1000B000FE3C0319A32809140915260888003210EC
:1000C00009113230722003140800A301A200FF308E
:1000D000A207031CA307031CA3280330A100DF30E1
:1000E00073206728A101E83EA000A109FC30031C91
:1000F0007C28A00703187928A0076400A10F79289D
:1001000020188228A01C8628000086280800A50147
:10011000A4011030A600210DA40DA50D2208A402F3
:100120002308031C230FA50203189D282208A407F7
:1001300023080318230FA5070310A00DA10DA60B7C
:100140008B282008A328831303138312640008005C
:10015000831607309F00643083128A01652083165E
:1001600003308500FE3083128A01212040308A014D
:1001700021201F308A01212010308A0121201030D7
:100180008A01212010308A0121201F308A0121207C
:1001900004308A01212004308A012120FE308A01A6
:1001A000212048308A0121201E308A012120003080
:1001B0008A0121201E308A01212012308A0121204B
:1001C0001E308A01212002308A0121201E308A013E
:1001D0002120FE308A01212050308A0121200A305E
:1001E0008A01212000308A0121200E308A0121203D
:1001F00011308A01212011308A01212011308A0119
:1002000021200E308A012120FE308A012120013078
:100210008A012120BA01B801BB01640019303A02F9
:100220008A110A1203189F2964003C3038028A118F
:100230000A1203189B2964003C303B028A110A12FF
:10024000031897290130B9006400063039028A1179
:100250000A120318942964008A110A120518312918
:10026000BA0A64003A08173C8A110A12031D392998
:10027000BA0164008A110A1285183F29B80A64007D
:1002800038083C3C8A110A12031D4729B801FE3088
:100290008A01212001308A01212020308A01212079
:1002A00020308A01212020308A01212020308A013B
:1002B000212020308A01212020308A012120640061
:1002C0000A303A028A110A120318692930308A0169
:1002D00021203A088A0102203A308A012120640054
:1002E0000A3038028A110A120318792930308A013B
:1002F000212038088A0102203A308A012120640036
:100300000A303B028A110A120318892930308A0107
:1003100021203B088A010220C8308A016520B90AE1
:100320008A110A12031D2429BB0A8A011B29BB0159
:10033000B80A8A011429B801BA0A8A010D29643061
:080340008A0165208A010D29E4
:02400E00753FFC
:00000001FF
