:020000040000FA
:100000003828A301A200FF30A207031CA307031C8A
:1000100033280330A100DF300F200328A101E83E80
:10002000A000A109FC30031C1828A00703181528FC
:10003000A0076400A10F152820181E28A01C222844
:100040000000222808000310A00DA10DFF3E031898
:100050002328200833280310A10CA00CFF3E03180E
:100060002B2820083328831303138312640008000D
:1000700083168601831201308600640080300602F8
:100080008A110A1203184D280130A300F4308A01A6
:1000900002200310860D8A013D286400023006020A
:1000A0008A110A12031C5D280130A300F4308A0172
:1000B00002200310860C8A014D288A013D288316F0
:1000C00086018312013086006400803006028A11A6
:1000D0000A120318762886090130A300F4308A0139
:1000E000022086090310860D8A016428640002300C
:1000F00006028A110A12031C882886090130A3000F
:10010000F4308A01022086090310860C8A017628C1
:040110008A016428D4
:02400E00753FFC
:00000001FF
