:020000040000FA
:100000002828A301A200FF30A207031CA307031C9A
:1000100023280330A100DF300F200328A101E83E90
:10002000A000A109FC30031C1828A00703181528FC
:10003000A0076400A10F152820181E28A01C222844
:1000400000002228080083130313831264000800B1
:10005000C0309F0083168030860083128601B8016D
:1000600064008A110A12861F49280130A300F43067
:100070008A010220B80A64003808103C8A110A126A
:10008000031D4328B8018030380786008A110A1200
:0A0090004B28B80186018A013028D0
:02400E00FC2F85
:00000001FF
