:020000040000FA
:10000000B201BE28A501A400B3172730A300103009
:1000100015200330A300E8301520A301643015201B
:10002000A3010A30152024082028A2002508A100D9
:100030002408A00087202008031DB313B31B080069
:10004000303EA70009110910091083160911091083
:100050000910880183122708B21849283A30A100F4
:10006000FC3073203330A6005C201030A1006830D3
:1000700073205C20643072205C20383048200C30C3
:1000800048200130482006304820B214270849286B
:100090003214A600321C57280910033C031C5C28AC
:1000A0005C200730A100D030732003140800321404
:1000B000FE3C0319B92809140915260888003210D6
:1000C00009113230722003140800A301A200FF308E
:1000D000A207031CA307031CB9280330A100DF30CB
:1000E00073206728A101E83EA000A109FC30031C91
:1000F0007C28A00703187928A0076400A10F79289D
:1001000020188228A01C8628000086280800A50147
:10011000A4011030A600210DA40DA50D2208A402F3
:100120002308031C230FA50203189D282208A407F7
:1001300023080318230FA5070310A00DA10DA60B7C
:100140008B282008B9281030A800A101A001A70C15
:10015000A60C031CB1282208A00723080318230FAC
:10016000A107A10CA00CA50CA40CA80BA72824087F
:10017000B928831303138312640008008316073021
:100180009F00643083128A01652083160330850046
:1001900007309F00F03086008801831286018801B5
:1001A0008A110A12872164000A3038028A110A1261
:1001B000031CDC288A01D0283808BA00FE308A01E6
:1001C000212001308A0121203A088A0102208A1167
:1001D0000A128721640038080A3C8A110A12031D9A
:1001E000F7282F308A0121208A110A122029640061
:1001F00038080B3C8A110A12031D04292A308A018F
:1002000021208A110A122029640038080C3C8A1126
:100210000A12031D11292D308A0121208A110A1288
:100220002029640038080D3C8A110A12031D1E297A
:100230002B308A0121208A110A1220298A01E728FD
:100240003808B90014308A0165208A110A12872102
:1002500064000A3038028A110A12031C31298A010B
:1002600025293808BB003B088A01022064003908B0
:100270000A3C8A110A12031D49293A08A000A1016B
:100280003B08A200A3018A018720BC008A110A1240
:100290007329640039080B3C8A110A12031D5C297A
:1002A0003A08A600A7013B08A200A3018A01A320E7
:1002B000BC008A110A127329640039080C3C8A11A7
:1002C0000A12031D69293B083A02BC008A110A126E
:1002D0007329640039080D3C8A110A12031D732921
:1002E0003A083B07BC008A110A12872164003808CB
:1002F0000E3C8A110A1203197F298A0173293D30A5
:100300008A0121203C088A0102208A01D02863301A
:10031000B800F130860064008A110A12061E922984
:100320000730B80064008A110A12861E9929083025
:10033000B80064008A110A12061FA0290930B8000B
:1003400064008A110A12861FA7290A30B8000A30F1
:100350008A016520F230860064008A110A12061EA6
:10036000B3290430B80064008A110A12861EBA2923
:100370000530B80064008A110A12061FC129063030
:10038000B80064008A110A12861FC8290B30B80011
:100390000A308A016520F430860064008A110A124E
:1003A000061ED4290130B80064008A110A12861E84
:1003B000DB290230B80064008A110A12061FE22904
:1003C0000330B80064008A110A12861FE9290C3034
:1003D000B8000A308A016520F830860064008A116E
:1003E0000A12061EF5290F30B80064008A110A129D
:1003F000861EFB29B80164008A110A12061F022A10
:100400000E30B80064008A110A12861F092A0D30C6
:10041000B8000A308A01652064003808633C8A11FC
:100420000A12031D182A8A0187298A110A121C2A16
:0804300014308A016520080068
:02400E00753FFC
:00000001FF
