:020000040000FA
:10000000B201BE2898181812181664008C1E052814
:100010001A080314B92864000C1E0B289900031455
:10002000B928A501A400B3172730A300103024205D
:100030000330A300E8302420A30164302420A3016E
:100040000A30242024082F28A2002508A100240813
:10005000A0009D202008031DB313B31B0800303EF1
:10006000A7000911091009108316091109100910B8
:10007000880183122708B21858283A30A100FC30B2
:1000800082203330A6006B201030A100683082201F
:100090006B20643081206B20383057200C30572083
:1000A0000130572006305720B21427085828321440
:1000B000A600321C66280910033C031C6B286B2029
:1000C0000730A100D0308220031408003214FE3C17
:1000D0000319B928091409152608880032100911D6
:1000E0003230812003140800A301A200FF30A207D0
:1000F000031CA307031CB9280330A100DF308220B2
:100100007628A101E83EA000A109FC30031C8B2841
:10011000A00703188828A0076400A10F88282018CA
:100120009128A01C95280000952808000038031D80
:10013000FF300405031DFF30B928A501A4011030CC
:10014000A600210DA40DA50D2208A4022308031C5E
:10015000230FA5020318B3282208A40723080318B5
:10016000230FA5070310A00DA10DA60BA1282008A1
:10017000B92883130313831264000800831619300F
:10018000990024309800831290309800831607302D
:100190009F00643083128A017420831607309F0009
:1001A000FE3083128A01302040308A0130200E3028
:1001B0008A0130200E308A01302000308A01302040
:1001C00000308A01302000308A01302000308A015E
:1001D000302000308A013020FE308A013020483043
:1001E0008A0130200E308A0130200E308A01302002
:1001F00004308A01302004308A01302000308A0126
:10020000302000308A01302000308A013020FE305A
:100210008A01302050308A0130200E308A0130208F
:100220000E308A01302004308A01302007308A01E4
:10023000302000308A01302000308A013020003028
:100240008A013020FE308A01302058308A01302067
:100250000E308A0130200E308A01302004308A01AD
:1002600030201F308A01302000308A0130200030D9
:100270008A01302000308A013020FE308A0130208F
:1002800060308A0130200E308A0130200E308A0121
:10029000302004308A0130201F308A0130200430A1
:1002A0008A01302002308A01302001308A0130205A
:1002B000FE308A01302068308A0130200E308A01F9
:1002C00030200E308A01302004308A0130201F3067
:1002D0008A01302004308A0130200A308A0130201F
:1002E00011308A0130200630CA00C801FE308A0170
:1002F000302001308A01302042308A010B206930E1
:100300008A010B2072308A010B2069308A010B2090
:100310006E308A010B2063308A010B2069308A011C
:100320000B2020308A010B206F308A010B2079309E
:100330008A010B2075308A010B206E308A010B2058
:1003400063308A010B2075308A010B2020308A012E
:100350000B2035308A010B2020308A010B206B30B6
:100360008A010B2061308A010B2072308A010B2038
:1003700061308A010B206B308A010B2074308A01B6
:100380000B2065308A010B2072308A010B206C3003
:100390008A010B2069308A010B2020308A010B2052
:1003A0006B308A010B2065308A010B206C308A018A
:1003B0000B2069308A010B206D308A010B206530DB
:1003C0008A010B2073308A010B2069308A010B20CF
:1003D0006E308A010B2069308A010B2020308A019F
:1003E0000B2067308A010B2069308A010B207230A4
:1003F0008A010B2073308A010B2069308A010B209F
:100400006E308A010B203A308A010B200D308A01B0
:100410000B200130C9006400063049028A110A121B
:100420000318232A8A010220BE00BF014908383E72
:1004300084003E0880002A308A010B20C90A8A11F4
:100440000A12031D0B2AFE308A01302001308A0176
:10045000302020308A01302020308A0130202030A6
:100460008A0130204B308A01302065308A013020EB
:100470006C308A01302069308A0130206D308A0169
:10048000302065308A01302020308A01302047300A
:100490008A01302069308A01302072308A01302090
:1004A00069308A0130206C308A01302064308A0142
:1004B000302069308A013020FE308A013020C0307F
:1004C0008A01302020308A01302020308A013020FB
:1004D00020308A01302032308A0130202E308A01CB
:1004E00030204F308A01302079308A013020753039
:1004F0008A0130206E308A01302063308A0130203A
:1005000075308A01302020308A01302042308A0143
:10051000302061308A01302073308A0130206C3005
:100520008A01302061308A0130200330A300E83096
:100530008A017520FE308A01302001308A01302086
:100540008A010220CB00640039084B028A110A128A
:10055000031DB42AFE308A01302080308A01302009
:100560004B088A013020C80A64003A084B028A11FD
:100570000A12031DC52AFE308A01302081308A010B
:1005800030204B088A013020C80A64003B084B0227
:100590008A110A12031DD62AFE308A0130208230C9
:1005A0008A0130204B088A013020C80A64003C08C8
:1005B0004B028A110A12031DE72AFE308A013020FD
:1005C00083308A0130204B088A013020C80A640039
:1005D0003D084B028A110A12031DF82AFE308A01D7
:1005E000302084308A0130204B088A013020C80A2C
:1005F0006400053048028A110A12031CCD2BFE301C
:100600008A013020C0308A01302054308A013020E5
:1006100061308A01302068308A0130206D308A01D3
:10062000302069308A0130206E308A01302020303D
:100630008A01302045308A01302064308A01302020
:1006400069308A0130206C308A01302064308A01A0
:10065000302069308A0130200D308A010B2059305A
:100660008A010B2065308A010B206E308A010B2035
:1006700069308A010B2064308A010B2065308A01C1
:100680000B206E308A010B2020308A010B20623053
:100690008A010B2061308A010B2073308A010B2004
:1006A0006C308A010B2061308A010B2074308A0182
:1006B0000B206D308A010B2061308A010B206B30DA
:1006C0008A010B2020308A010B2069308A010B201F
:1006D00063308A010B2069308A010B206E308A0159
:1006E0000B2020308A010B2068308A010B206530F6
:1006F0008A010B2072308A010B2068308A010B209E
:1007000061308A010B206E308A010B2067308A012C
:100710000B2069308A010B2020308A010B207430B5
:100720008A010B2075308A010B2073308A010B205F
:1007300061308A010B2020308A010B2062308A014F
:100740000B2061308A010B2073308A010B20693045
:100750008A010B206E308A010B2069308A010B2040
:100760007A308A010B202E308A010B202E308A012C
:100770000B202E308A010B200D308A010B208A01BC
:100780000220CB008A017329FE308A01302001301B
:100790008A01302014308A01742039084B02031D6D
:1007A000FF30BE003A084B02031DFF30C0003E0878
:1007B000840040088A019620C000C1003B084B021B
:1007C000031DFF30C20040084104840042088A0132
:1007D0009620C200C3003C084B02031DFF30C4003A
:1007E00042084304840044088A019620C400C500DE
:1007F0003D084B02031DFF30C60044084504840039
:1008000046088A019620C600C700640046084704CF
:100810008A110A120319CE2CCA0364004A08003C4C
:100820008A110A12031D882CFE308A013020803084
:100830008A01302020308A01302020308A01302087
:100840004B308A01302075308A01302072308A01A5
:10085000302074308A01302061308A0130207230BB
:100860008A01302069308A0130206C308A013020C2
:100870006D308A01302061308A01302064308A0175
:10088000302069308A01302020308A0130203A300F
:100890008A01302028308A013020FE308A01302041
:1008A000C0308A0130204B308A01302061308A010B
:1008B00030206C308A01302061308A0130206E3067
:1008C0008A01302020308A01302079308A0130209E
:1008D00061308A0130206E308A0130206C308A010C
:1008E000302069308A01302073308A013020203076
:1008F0008A0130203A308A0130204A088A011120CA
:100900008A010220CB008A0173298A110A12982CCD
:10091000FE308A01302086308A0130204A08053CAA
:10092000BE000030031CFF3EBF003E088A0130209D
:1009300014308A017420FE308A013020C0308A01D0
:1009400030204B308A01302061308A0130206C30F9
:100950008A01302061308A0130206E308A013020D7
:1009600020308A01302079308A01302061308A01BC
:1009700030206E308A0130206C308A01302069309E
:100980008A01302073308A01302020308A013020E3
:100990003A308A0130204A088A0111208A01A02AAF
:0409A0008A0173292C
:02400E007D3FF4
:00000001FF
