:020000040000FA
:10000000B2017D28A70009110910091083160911F2
:1000100009100910880183122708B2182A283A30DB
:10002000A100FC3054203330A6003D201030A10048
:10003000683054203D20643053203D203830292042
:100040000C3029200130292006302920B21427083D
:100050002A283214A600321C38280910033C031C3D
:100060003D283D200730A100D03054200314080063
:100070003214FE3C03197828091409152608880053
:10008000321009113230532003140800A301A200DA
:10009000FF30A207031CA307031C78280330A1002C
:1000A000DF3054204828A101E83EA000A109FC301F
:1000B000031C5D28A00703185A28A0076400A10F9D
:1000C0005A2820186328A01C672800006728080009
:1000D0000310A00DA10DFF3E031868282008782802
:1000E0000310A10CA00CFF3E0318702820087828EC
:1000F00083130313831264000800831607309F00E4
:10010000643083128A0146208316033085008601FD
:100110008701831287010130860064008A110A1268
:100120008518402AB80A64003808083C8A110A1267
:10013000031D9B28B80164003808003C8A110A128C
:10014000031DCE2880308700FE308A010220013056
:100150008A0102207C308A01022020308A0102209C
:1001600020308A01022020308A01022020308A01BA
:10017000022020308A01022020308A010220203013
:100180008A0102202A308A0102207C308A01022062
:1001900014308A0146208A110A12302A6400380875
:1001A000013C8A110A12031D012940308700FE30EC
:1001B0008A01022001308A0102207C308A0102205B
:1001C00020308A01022020308A01022020308A015A
:1001D000022020308A01022020308A0102202030B3
:1001E0008A0102202A308A01022020308A0102205E
:1001F0007C308A01022014308A0146208A110A12BA
:10020000302A64003808023C8A110A12031D34297E
:1002100020308700FE308A01022001308A0102204E
:100220007C308A01022020308A01022020308A019D
:10023000022020308A01022020308A010220203052
:100240008A0102202A308A01022020308A010220FD
:1002500020308A0102207C308A01022014308A0179
:1002600046208A110A12302A64003808033C8A1199
:100270000A12031D672910308700FE308A01022010
:1002800001308A0102207C308A01022020308A015C
:10029000022020308A01022020308A0102202030F2
:1002A0008A0102202A308A01022020308A0102209D
:1002B00020308A01022020308A0102207C308A010D
:1002C000022014308A0146208A110A12302A640062
:1002D0003808043C8A110A12031D9A290830870045
:1002E000FE308A01022001308A0102207C308A011E
:1002F000022020308A01022020308A010220203092
:100300008A0102202A308A01022020308A0102203C
:1003100020308A01022020308A01022020308A0108
:1003200002207C308A01022014308A0146208A1182
:100330000A12302A64003808053C8A110A12031D8B
:10034000CD2904308700FE308A01022001308A0165
:1003500002207C308A01022020308A0102202030D5
:100360008A0102202A308A01022020308A010220DC
:1003700020308A01022020308A01022020308A01A8
:10038000022020308A0102207C308A0102201430B1
:100390008A0146208A110A12302A64003808063C75
:1003A0008A110A12031D002A02308700FE308A01DA
:1003B000022001308A0102207C308A010220203094
:1003C0008A0102202A308A01022020308A0102207C
:1003D00020308A01022020308A01022020308A0148
:1003E000022020308A01022020308A0102207C3045
:1003F0008A01022014308A0146208A110A12302A0A
:1004000064003808073C8A110A12031D302A0130A3
:100410008700FE308A01022001308A0102207C30F0
:100420008A0102202A308A01022020308A0102201B
:1004300020308A01022020308A01022020308A01E7
:10044000022020308A01022020308A010220203040
:100450008A0102207C308A01022014308A01462061
:100460000310860C64000608003C8A110A12031D62
:100470003B2A0830860064308A0146208A018D2894
:1004800064008A110A120518F42B64003808003C35
:100490008A110A12031D4E2A0830B800B8036400FE
:1004A0003808003C8A110A12031D822A8030870016
:1004B000FE308A01022001308A0102207C308A014C
:1004C000022020308A01022020308A0102202030C0
:1004D0008A01022020308A01022020308A01022075
:1004E00020308A01022020308A0102202A308A012D
:1004F00002207C308A01022014308A0146208A11B1
:100500000A12E42B64003808013C8A110A12031D08
:10051000B52A40308700FE308A01022001308A016E
:1005200002207C308A01022020308A010220203003
:100530008A01022020308A01022020308A01022014
:1005400020308A01022020308A0102202A308A01CC
:10055000022020308A0102207C308A0102201430DF
:100560008A0146208A110A12E42B64003808023CF2
:100570008A110A12031DE82A20308700FE308A0102
:10058000022001308A0102207C308A0102202030C2
:100590008A01022020308A01022020308A010220B4
:1005A00020308A01022020308A0102202A308A016C
:1005B000022020308A01022020308A0102207C3073
:1005C0008A01022014308A0146208A110A12E42B83
:1005D00064003808033C8A110A12031D1B2B1030DB
:1005E0008700FE308A01022001308A0102207C301F
:1005F0008A01022020308A01022020308A01022054
:1006000020308A01022020308A0102202A308A010B
:10061000022020308A01022020308A01022020306E
:100620008A0102207C308A01022014308A0146208F
:100630008A110A12E42B64003808043C8A110A1259
:10064000031D4E2B08308700FE308A010220013046
:100650008A0102207C308A01022020308A01022097
:1006600020308A01022020308A0102202A308A01AB
:10067000022020308A01022020308A01022020300E
:100680008A01022020308A0102207C308A01022067
:1006900014308A0146208A110A12E42B64003808BB
:1006A000053C8A110A12031D812B04308700FE309D
:1006B0008A01022001308A0102207C308A01022056
:1006C00020308A01022020308A0102202A308A014B
:1006D000022020308A01022020308A0102202030AE
:1006E0008A01022020308A01022020308A01022063
:1006F0007C308A01022014308A0146208A110A12B5
:10070000E42B64003808063C8A110A12031DB42B3E
:1007100002308700FE308A01022001308A01022067
:100720007C308A01022020308A0102202A308A018E
:10073000022020308A01022020308A01022020304D
:100740008A01022020308A01022020308A01022002
:1007500020308A0102207C308A01022014308A0174
:1007600046208A110A12E42B64003808073C8A11DB
:100770000A12031DE42B01308700FE308A0102209B
:1007800001308A0102207C308A0102202A308A014D
:10079000022020308A01022020308A0102202030ED
:1007A0008A01022020308A01022020308A010220A2
:1007B00020308A01022020308A0102207C308A0108
:1007C000022014308A0146200310860D64000608BA
:1007D000103C8A110A12031DEF2B01308600643091
:0C07E0008A0146208A01402A8A018D28E7
:02400E00753FFC
:00000001FF
