:020000040000FA
:10000000B201B728A400B3172730A3001030142082
:100010000330A300E8301420A30164301420A301AE
:100020000A30142024081F28A2002508A100240853
:10003000A00096202008031DB313B31B0800303E18
:10004000A7000911091009108316091109100910D8
:10005000880183122708B21848283A30A100FC30E2
:1000600072203330A6005B201030A100683072206F
:100070005B20643071205B20383047200C304720F3
:100080000130472006304720B21427084828321490
:10009000A600321C56280910033C031C5B285B2079
:1000A0000730A100D0307220031408003214FE3C47
:1000B0000319B228091409152608880032100911FD
:1000C0003230712003140800A301A200FF30A20700
:1000D000031CA307031CB2280330A100DF307220E9
:1000E0006628A101E83EA000A109FC30031C7B2882
:1000F000A00703187828A0076400A10F782820180B
:100100008128A01C85280000852808000310A00D68
:10011000A10DFF3E031886282008B2280310A10C69
:10012000A00CFF3E03188E282008B228A501A401C8
:100130001030A600210DA40DA50D2208A40223084D
:10014000031C230FA5020318AC282208A4072308C8
:100150000318230FA5070310A00DA10DA60B9A28C5
:100160002008B22883130313831264000800831647
:1001700007309F00643083128A0164208316860151
:1001800003308700831201308600870132308A01F4
:10019000642064008A110A12071CDF280310860CF1
:1001A00064000608003C8A110A12031DD928103089
:1001B0008600BA0A19308A0164208A01C9286400BD
:1001C0008A110A12871CF5280310860D64000608A0
:1001D000103C8A110A12031DEF2801308600BB0A69
:1001E00019308A0164208A01DF28FE308A0120202C
:1001F00001308A01202049308A0120206C308A0198
:10020000202065308A01202072308A012020693048
:100210008A0120203A308A0120203B08A000A10159
:100220000430A200A3018A019620B8002108B90079
:100230003908A50038088A010220FE308A012020F2
:10024000C0308A01202047308A01202065308A0191
:10025000202072308A01202069308A0120203A3023
:100260008A0120203A08A000A1010430A200A301C5
:100270008A019620B8002108B9003908A50038087D
:0E0280008A01022032308A0164208A01C628D9
:02400E00753FFC
:00000001FF
