:020000040000FA
:10000000B201A828A501A400B3172730A30010301F
:1000100015200330A300E8301520A301643015201B
:10002000A3010A30152024082028A2002508A100D9
:100030002408A00087202008031DB313B31B080069
:10004000303EA70009110910091083160911091083
:100050000910880183122708B21849283A30A100F4
:10006000FC3073203330A6005C201030A1006830D3
:1000700073205C20643072205C20383048200C30C3
:1000800048200130482006304820B214270849286B
:100090003214A600321C57280910033C031C5C28AC
:1000A0005C200730A100D030732003140800321404
:1000B000FE3C0319A32809140915260888003210EC
:1000C00009113230722003140800A301A200FF308E
:1000D000A207031CA307031CA3280330A100DF30E1
:1000E00073206728A101E83EA000A109FC30031C91
:1000F0007C28A00703187928A0076400A10F79289D
:1001000020188228A01C8628000086280800A50147
:10011000A4011030A600210DA40DA50D2208A402F3
:100120002308031C230FA50203189D282208A407F7
:1001300023080318230FA5070310A00DA10DA60B7C
:100140008B282008A328831303138312640008005C
:10015000831607309F00643083128A01652083165E
:10016000850107309F00703086008312850186016B
:100170006330BB0064000A303B028A110A12031C80
:10018000C6288A110A1204218A01BA283B08B8003D
:10019000C8308A0165206330BB0064000A303B022E
:1001A0008A110A12031CD9288A110A1204218A0111
:1001B000CD283B08B900C8308A0165206330BB00F8
:1001C00064000A303B028A110A12031CEC288A11CF
:1001D0000A1204218A01E0283B08BA003B08850086
:1001E000FE308A01212001308A01212038088A014D
:1001F000022039088A0102203A088A010220C83008
:100200008A0165208A01B8286330BB00013086006E
:1002100064008A110A12061E0F290130BB00640017
:100220008A110A12861E16290230BB0064008A1148
:100230000A12061F1D290330BB000A308A016520FF
:100240000230860064008A110A12061E2929043031
:10025000BB0064008A110A12861E30290530BB00DB
:1002600064008A110A12061F37290630BB000A30C3
:100270008A0165200430860064008A110A12061E75
:1002800043290730BB0064008A110A12861E4A29DE
:100290000830BB0064008A110A12061F5129093078
:1002A000BB000A308A0165200830860064008A118C
:1002B0000A12061E5D290A30BB0064008A110A1268
:1002C000861E6329BB0164008A110A12061F6A296F
:1002D0000B30BB000A308A01652064003B08633C98
:1002E0008A110A12031D76298A01042932308A01F3
:0402F000652008007D
:02400E00753FFC
:00000001FF
