:020000040000FA
:100000006428A301A200FF30A207031CA307031C5E
:100010005F280330A100DF300F200328A101E83E54
:10002000A000A109FC30031C1828A00703181528FC
:10003000A0076400A10F152820181E28A01C222844
:10004000000022280800013EA7000A30A200A301F8
:100050002D20A70B282824080800A501A401103092
:10006000A600210DA40DA50D2208A4022308031C3F
:10007000230FA502031843282208A4072308031806
:10008000230FA5070310A00DA10DA60B31282008F2
:100090005F281030A800A101A001A70CA60C031C2A
:1000A00057282208A00723080318230FA107A10C33
:1000B000A00CA50CA40CA80B4D2824085F288313C2
:1000C0000313831264000800831607309F00860123
:1000D000870188010730890083128601BB01BC01BA
:1000E000880164008A110A1209188228BB0A640078
:1000F0003B080A3C8A110A12031D7F28BB01C83045
:100100008A01012064008A110A1289189328BC0A06
:1001100064003C080A3C8A110A12031D9028BC01A5
:10012000C8308A01012064008A110A120919B22814
:100130003B083C07BA003A08A000A10101308A013F
:100140002320B800B9013808A6003908A7000630F6
:10015000A200A3018A014920B8002508B900380887
:100160003A0788003B0886003C0887008A0171280E
:02400E00753FFC
:00000001FF
