:020000040000FA
:100000003828A301A200FF30A207031CA307031C8A
:1000100033280330A100DF300F200328A101E83E80
:10002000A000A109FC30031C1828A00703181528FC
:10003000A0076400A10F152820181E28A01C222844
:100040000000222808000310A00DA10DFF3E031898
:100050002328200833280310A10CA00CFF3E03180E
:100060002B2820083328831303138312640008000D
:1000700083168601880103308700831201308600D1
:10008000870164008A110A12071C56280310860D86
:1000900064000608103C8A110A12031D5128013021
:1000A000860019308A0101208A01412864008A11E2
:1000B0000A12871C6B280310860C64000608003C9B
:1000C0008A110A12031D66281030860019308A0131
:0A00D00001208A0156288A01412808
:02400E00753FFC
:00000001FF
