:020000040000FA
:10000000B201A8289818181218162C08A0002D085C
:10001000A100A201A3010C280D2864008C1A292834
:10002000FF30A207031CA307031CA007031CA107A2
:10003000031C0800220F0B28230F0C283230A200CB
:100040000030A3000D2898181812181664008C1E92
:1000500026281A080314A32864000C1E2C289900D3
:100060000314A328A7000911091009108316091108
:1000700009100910880183122708B2185A283A304B
:10008000A100FC3084203330A6006D201030A10088
:10009000683084206D20643083206D2038305920F2
:1000A0000C3059200130592006305920B21427084D
:1000B0005A283214A600321C68280910033C031C7D
:1000C0006D286D200730A100D03084200314080073
:1000D0003214FE3C0319A3280914091526088800C8
:1000E000321009113230832003140800A301A2004A
:1000F000FF30A207031CA307031CA3280330A100A1
:10010000DF3084207828A101E83EA000A109FC305E
:10011000031C8D28A00703188A28A0076400A10FDC
:100120008A2820189328A01C9728000097280800E8
:100130000038031DFF300405031DFF30A32804040D
:10014000031DFF30A32883130313831264000800E8
:10015000831619309900243098008312903098004B
:10016000831607309F00643083128A01762083163D
:1001700007309F00FE3083128A01322040308A010E
:10018000322011308A0132200A308A0132200430B4
:100190008A0132201B308A0132201B308A01322032
:1001A00000308A01322000308A013220FE308A017C
:1001B000322048308A01322004308A0132200E3049
:1001C0008A0132200F308A0132201E308A0132200B
:1001D0000E308A0132200A308A01322000308A0132
:1001E0003220FE308A01322050308A01322008301D
:1001F0008A01322008308A01322004308A013220FC
:1002000004308A01322004308A01322008308A0109
:10021000322000308A01322042308A012C2069309D
:100220008A012C2072308A012C2069308A012C200E
:100230006E308A012C2063308A012C2069308A01BB
:100240002C2020308A012C2048308A012C2061305B
:100250008A012C206D308A012C206C308A012C20E0
:1002600065308A012C2020308A012C2067308A01D9
:100270002C2069308A012C2072308A012C206930B0
:100280008A012C206E308A012C2069308A012C20B2
:100290007A308A012C200D308A012C20E830AC0005
:1002A0000330AD008A0102208A110A12031C0C29B6
:1002B000C5004508743C031DFF30B8004508543C98
:1002C000031DFF30BA00380884003A088A019820DC
:1002D000BA00BB0045086D3C031DFF30BC003A0866
:1002E0003B0484003C088A019820BC00BD004508FE
:1002F0004D3C031DFF30BE003C083D0484003E0819
:100300008A019820BE00BF0045086B3C031DFF30EA
:10031000C0003E083F04840040088A019820C000C5
:10032000C10045084B3C031DFF30C200400841049A
:10033000840042088A019820C200C3006400420879
:1003400043048A110A120319E02959308A012C202A
:1003500041308A012C204E308A012C204C308A01F9
:100360002C2049308A012C2053308A012C20203047
:100370008A012C2047308A012C2049308A012C2008
:1003800052308A012C2044308A012C2049308A01C5
:100390002C204E308A012C2049308A012C205A30E2
:1003A0008A012C2028308A012C2045088A012C2023
:1003B00029308A012C200D308A012C208A010C2939
:1003C00045086D3C031DFF30FF3AB80045084D3C21
:1003D000031DFF30FF3ABA00380884003A088A014A
:1003E0009F20BA00BB0064003A083B048A110A123D
:1003F0000319FB29C5014508743C031DFF30FF3A72
:10040000B8004508543C031DFF30FF3ABA003808D5
:1004100084003A088A019F20BA00BB0064003A08B1
:100420003B048A110A120319172A0130C500450836
:100430006B3C031DFF30FF3AB80045084B3C031DE1
:10044000FF30FF3ABA00380884003A088A019F203A
:10045000BA00BB0064003A083B048A110A1203196F
:10046000332A0230C500FE308A01322001308A0171
:10047000322042308A01322069308A0132207230C3
:100480008A01322069308A0132206E308A0132209E
:1004900063308A01322069308A01322020308A019B
:1004A000322048308A01322041308A0132204D30DA
:1004B0008A0132204C308A01322045308A013220B4
:1004C00020308A01322045088A01322014308A0106
:1004D000762049308A012C206B308A012C2069302B
:1004E0008A012C206E308A012C2063308A012C2056
:1004F00069308A012C2020308A012C2048308A0162
:100500002C2061308A012C206D308A012C206C3027
:100510008A012C2065308A012C2020308A012C2071
:1005200067308A012C2069308A012C2072308A01C0
:100530002C2069308A012C206E308A012C206930F1
:100540008A012C207A308A012C200D308A012C203F
:10055000E830AC000330AD008A0102208A110A1293
:10056000031C692AC6004608743C031DFF30B8000E
:100570004608543C031DFF30BA00380884003A088E
:100580008A019820BA00BB0046086D3C031DFF306D
:10059000BC003A083B0484003C088A019820BC0057
:1005A000BD0046084D3C031DFF30BE003C083D0425
:1005B00084003E088A019820BE00BF0046086B3CBC
:1005C000031DFF30C0003E083F04840040088A013C
:1005D0009820C000C10046084B3C031DFF30C200FC
:1005E00040084104840042088A019820C200C300E8
:1005F0006400420843048A110A1203193A2B593045
:100600008A012C2041308A012C204E308A012C2076
:100610004C308A012C2049308A012C2053308A0129
:100620002C2020308A012C2047308A012C20493090
:100630008A012C2052308A012C2044308A012C203F
:1006400049308A012C204E308A012C2049308A0101
:100650002C205A308A012C2028308A012C20460870
:100660008A012C2029308A012C200D308A012C206F
:100670008A01692A46086D3C031DFF30FF3AB80025
:1006800046084D3C031DFF30FF3ABA00380884008D
:100690003A088A019F20BA00BB0064003A083B0474
:1006A0008A110A120319552BC6014608743C031D12
:1006B000FF30FF3AB8004608543C031DFF30FF3AB4
:1006C000BA00380884003A088A019F20BA00BB00AB
:1006D00064003A083B048A110A120319712B013095
:1006E000C60046086B3C031DFF30FF3AB8004608C1
:1006F0004B3C031DFF30FF3ABA00380884003A082B
:100700008A019F20BA00BB0064003A083B048A11AA
:100710000A1203198D2B0230C600FE308A013220E6
:10072000C0308A01322049308A0132204B308A01A0
:10073000322049308A0132204E308A013220433043
:100740008A01322049308A01322020308A01322049
:1007500048308A01322041308A0132204D308A01EE
:1007600032204C308A01322045308A01322020303C
:100770008A01322046088A0132200330A300E83083
:100780008A0177206400450846028A110A12031D77
:10079000DB2BFE308A01322000308A0132204130CA
:1007A0008A01322079308A0132206E308A0132206B
:1007B00069308A0132204508003C031DFF30FF3AB2
:1007C000B8004608013C031DFF30FF3ABA00380864
:1007D00084003A088A019820BA00BB0064003A08F5
:1007E0003B048A110A1203194F2CFE308A01322071
:1007F00001308A01322001308A01322020308A0102
:10080000322000308A01322020308A0132206B30C1
:100810008A01322069308A01322072308A01322006
:1008200061308A01322072308A013220FE308A0122
:100830003220C0308A01322032308A0132202E30FC
:100840008A01322020308A0132206F308A01322022
:1008500079308A01322075308A0132206E308A0167
:10086000322063308A01322075308A0132202030F4
:100870008A0132206B308A01322061308A013220B5
:100880007A308A01322061308A0132206E308A014A
:10089000322064308A01322069308A0132204508D2
:1008A000003C031DFF30FF3AB8004608023C031D20
:1008B000FF30FF3ABA00380884003A088A019820CD
:1008C000BA00BB0064003A083B048A110A120319FB
:1008D000C62CFE308A01322001308A0132200030DD
:1008E0008A01322020308A01322002308A013220EF
:1008F00069308A01322020308A0132206B308A012F
:10090000322065308A01322073308A01322065300E
:100910008A01322072308A013220FE308A01322070
:10092000C0308A01322031308A0132202E308A01D3
:10093000322020308A0132206F308A013220793013
:100940008A01322075308A0132206E308A013220CD
:1009500063308A01322075308A01322020308A01CA
:1009600032206B308A01322061308A0132207A30A5
:100970008A01322061308A0132206E308A013220B1
:1009800064308A01322069308A0132204508013CF6
:10099000031DFF30FF3AB8004608003C031DFF303E
:1009A000FF3ABA00380884003A088A019820BA0051
:1009B000BB0064003A083B048A110A1203193A2D5D
:1009C000FE308A01322001308A01322001308A0152
:1009D000322020308A01322000308A01322020303B
:1009E0008A0132206B308A01322069308A0132203C
:1009F00072308A01322061308A01322072308A01DD
:100A00003220FE308A013220C0308A01322031305B
:100A10008A0132202E308A01322020308A01322091
:100A20006F308A01322079308A01322075308A0194
:100A300032206E308A01322063308A0132207530D4
:100A40008A01322020308A0132206B308A01322024
:100A500061308A0132207A308A01322061308A0185
:100A600032206E308A01322064308A0132206930AF
:100A70008A0132204508013C031DFF30FF3AB800CF
:100A80004608023C031DFF30FF3ABA0038088400D4
:100A90003A088A019820BA00BB0064003A083B0477
:100AA0008A110A120319B12DFE308A013220013059
:100AB0008A01322002308A01322020308A0132201D
:100AC00001308A01322069308A01322020308A01C7
:100AD000322073308A01322061308A013220723034
:100AE0008A01322061308A01322072308A0132203C
:100AF000FE308A013220C0308A01322032308A0131
:100B000032202E308A01322020308A0132206F308C
:100B10008A01322079308A01322075308A013220F0
:100B20006E308A01322063308A01322075308A01AA
:100B3000322020308A0132206B308A01322061302D
:100B40008A0132207A308A01322061308A013220D3
:100B50006E308A01322064308A01322069308A0185
:100B600032204508023C031DFF30FF3AB80046081A
:100B7000003C031DFF30FF3ABA00380884003A08F1
:100B80008A019820BA00BB0064003A083B048A112D
:100B90000A120319282EFE308A01322001308A0100
:100BA000322000308A01322020308A013220023087
:100BB0008A01322069308A01322020308A013220B5
:100BC0006B308A01322065308A01322073308A010D
:100BD000322065308A01322072308A013220FE30A4
:100BE0008A013220C0308A01322032308A0132201C
:100BF0002E308A01322020308A0132206F308A0163
:100C0000322079308A01322075308A0132206E30EC
:100C10008A01322063308A01322075308A01322005
:100C200020308A0132206B308A01322061308A0103
:100C300032207A308A01322061308A0132206E30CF
:100C40008A01322064308A01322069308A013220E0
:100C50004508023C031DFF30FF3AB8004608013C3E
:100C6000031DFF30FF3ABA00380884003A088A01B1
:100C70009820BA00BB0064003A083B048A110A12AB
:100C800003199F2EFE308A01322001308A01322062
:100C900002308A01322020308A01322001308A015C
:100CA000322069308A01322020308A0132207330AC
:100CB0008A01322061308A01322072308A0132206A
:100CC00061308A01322072308A013220FE308A017E
:100CD0003220C0308A01322031308A0132202E3059
:100CE0008A01322020308A0132206F308A0132207E
:100CF00079308A01322075308A0132206E308A01C3
:100D0000322063308A01322075308A01322020304F
:100D10008A0132206B308A01322061308A01322010
:100D20007A308A01322061308A0132206E308A01A5
:100D3000322064308A01322069308A013220483002
:100D40008A012C2065308A012C2072308A012C20E7
:100D500068308A012C2061308A012C206E308A0193
:100D60002C2067308A012C2069308A012C20203009
:100D70008A012C2062308A012C2069308A012C20C3
:100D800072308A012C2020308A012C2062308A01A6
:100D90002C2075308A012C2074308A012C2075306B
:100DA0008A012C206E308A012C2020308A012C20D0
:100DB00062308A012C2061308A012C2073308A0134
:100DC0002C2069308A012C206E308A012C202030A2
:100DD0008A012C2074308A012C2065308A012C2055
:100DE0006B308A012C2072308A012C2061308A01FC
:100DF0002C2072308A012C206C308A012C2061302A
:100E00008A012C206D308A012C2061308A012C202F
:100E10006B308A012C2020308A012C2069308A0115
:100E20002C2063308A012C2069308A012C206E30FE
:100E30008A012C208A012320C500FE308A0132203D
:0A0E400001308A0132208A010C29DA
:02400E007D3FF4
:00000001FF
