:020000040000FA
:100000006428A301A200FF30A207031CA307031C5E
:100010005F280330A100DF300F200328A101E83E54
:10002000A000A109FC30031C1828A00703181528FC
:10003000A0076400A10F152820181E28A01C222844
:10004000000022280800013EA7000A30A200A301F8
:100050002D20A70B282824080800A501A401103092
:10006000A600210DA40DA50D2208A4022308031C3F
:10007000230FA502031843282208A4072308031806
:10008000230FA5070310A00DA10DA60B31282008F2
:100090005F281030A800A101A001A70CA60C031C2A
:1000A00057282208A00723080318230FA107A10C33
:1000B000A00CA50CA40CA80B4D2824085F288313C2
:1000C0000313831264000800831607309F00F0308A
:1000D00086008801831286018801BD01BA01633060
:1000E000BB0064308A0101208A110A12F3206400E7
:1000F0003A080F3C8A110A12031D8428BD0163309F
:10010000BB008A110A12DA2864000A303A028A1106
:100110000A120318D72864003B08633C8A110A12AC
:10012000031D97283A08BD008A110A12DA286400D4
:100130003B080A3C8A110A12031DAA283D08A000A8
:10014000A1013A08A200A3018A012D20BD008A1155
:100150000A12D22864003B080B3C8A110A12031DC4
:10016000BD283D08A600A7013A08A200A3018A0104
:100170004920BD008A110A12D22864003B080C3CB9
:100180008A110A12031DC9283A08BD028A110A12EF
:10019000D22864003B080D3C8A110A12031DD228A4
:1001A0003A08BD076330BB008A110A12DA283A0800
:1001B000BB0088013D08A000A10101308A01232075
:1001C000B800B9013808A6003908A7000630A20017
:1001D000A3018A014920B8002508B90038083D0765
:1001E00088008A0171286330BA00F130860064000B
:1001F0008A110A12061EFE280730BA0064008A110E
:100200000A12861E05290830BA0064008A110A12F3
:10021000061F0C290930BA0064008A110A12861FD1
:1002200013290A30BA000A308A010120F230860010
:1002300064008A110A12061E1F290430BA006400E5
:100240008A110A12861E26290530BA0064008A1116
:100250000A12061F2D290630BA0064008A110A12FC
:10026000861F34290B30BA000A308A010120F4308D
:10027000860064008A110A12061E40290130BA0065
:1002800064008A110A12861E47290230BA006400EF
:100290008A110A12061F4E290330BA0064008A111F
:1002A0000A12861F55290C30BA000A308A01012033
:1002B000F830860064008A110A12061E61290F3088
:1002C000BA0064008A110A12861E6729BA01640006
:1002D0008A110A12061F6E290E30BA0064008A11B4
:1002E0000A12861F75290D30BA000A308A010120D2
:1002F00064003A08633C8A110A12031D84298A01AA
:0A030000F3288A110A12852908006B
:02400E00753FFC
:00000001FF
